{
  "contractName": "MinimalForwarder",
  "abi": [
    {
      "inputs": [],
      "stateMutability": "nonpayable",
      "type": "constructor"
    },
    {
      "inputs": [
        {
          "internalType": "address",
          "name": "from",
          "type": "address"
        }
      ],
      "name": "getNonce",
      "outputs": [
        {
          "internalType": "uint256",
          "name": "",
          "type": "uint256"
        }
      ],
      "stateMutability": "view",
      "type": "function"
    },
    {
      "inputs": [
        {
          "components": [
            {
              "internalType": "address",
              "name": "from",
              "type": "address"
            },
            {
              "internalType": "address",
              "name": "to",
              "type": "address"
            },
            {
              "internalType": "uint256",
              "name": "value",
              "type": "uint256"
            },
            {
              "internalType": "uint256",
              "name": "gas",
              "type": "uint256"
            },
            {
              "internalType": "uint256",
              "name": "nonce",
              "type": "uint256"
            },
            {
              "internalType": "bytes",
              "name": "data",
              "type": "bytes"
            }
          ],
          "internalType": "struct MinimalForwarder.ForwardRequest",
          "name": "req",
          "type": "tuple"
        },
        {
          "internalType": "bytes",
          "name": "signature",
          "type": "bytes"
        }
      ],
      "name": "verify",
      "outputs": [
        {
          "internalType": "bool",
          "name": "",
          "type": "bool"
        }
      ],
      "stateMutability": "view",
      "type": "function"
    },
    {
      "inputs": [
        {
          "components": [
            {
              "internalType": "address",
              "name": "from",
              "type": "address"
            },
            {
              "internalType": "address",
              "name": "to",
              "type": "address"
            },
            {
              "internalType": "uint256",
              "name": "value",
              "type": "uint256"
            },
            {
              "internalType": "uint256",
              "name": "gas",
              "type": "uint256"
            },
            {
              "internalType": "uint256",
              "name": "nonce",
              "type": "uint256"
            },
            {
              "internalType": "bytes",
              "name": "data",
              "type": "bytes"
            }
          ],
          "internalType": "struct MinimalForwarder.ForwardRequest",
          "name": "req",
          "type": "tuple"
        },
        {
          "internalType": "bytes",
          "name": "signature",
          "type": "bytes"
        }
      ],
      "name": "execute",
      "outputs": [
        {
          "internalType": "bool",
          "name": "",
          "type": "bool"
        },
        {
          "internalType": "bytes",
          "name": "",
          "type": "bytes"
        }
      ],
      "stateMutability": "payable",
      "type": "function"
    }
  ],
  "bytecode": "0x61012060405234801561001157600080fd5b50604080518082018252601081526f26b4b734b6b0b62337b93bb0b93232b960811b602080830191825283518085019094526005845264302e302e3160d81b908401528151902060c08190527fae209a0b48f21c054280f2455d32cf309387644879d9acbd8ffc19916381188560e08190524660a0529192917f8b73c3c69bb8fe3d512ecc4cf759cc79239f7b179b0ffacaa9a75d522b39400f6100b68184846100c7565b608052610100525061012d92505050565b600083838346306040516020016100e2959493929190610101565b6040516020818303038152906040528051906020012090509392505050565b9485526020850193909352604084019190915260608301526001600160a01b0316608082015260a00190565b60805160a05160c05160e05161010051610ae261017160003960006104490152600061048b0152600061046a015260006103f7015260006104200152610ae26000f3fe6080604052600436106100345760003560e01c80632d0335ab1461003957806347153f821461006f578063bf5d3bdb14610090575b600080fd5b34801561004557600080fd5b5061005961005436600461060f565b6100bd565b60405161006691906109c5565b60405180910390f35b61008261007d36600461063d565b6100d8565b60405161006692919061077e565b34801561009c57600080fd5b506100b06100ab36600461063d565b61023e565b6040516100669190610773565b6001600160a01b031660009081526020819052604090205490565b600060606100e785858561023e565b61010c5760405162461bcd60e51b815260040161010390610877565b60405180910390fd5b61011b60808601356001610a38565b60008061012b602089018961060f565b6001600160a01b03166001600160a01b0316815260200190815260200160002081905550600080866020016020810190610165919061060f565b6001600160a01b03166060880135604089013561018560a08b018b6109ce565b61019260208d018d61060f565b6040516020016101a4939291906106e5565b60408051601f19818403018152908290526101be91610721565b600060405180830381858888f193505050503d80600081146101fc576040519150601f19603f3d011682016040523d82523d6000602084013e610201565b606091505b509092509050610216603f6060890135610a5c565b5a1161023257634e487b7160e01b600052600160045260246000fd5b90969095509350505050565b60008061032484848080601f01602080910402602001604051908101604052809392919081815260200183838082843760009201919091525061031e92507fdd8f4b70b0f4393e889bd39128a30628a78b61816a9eb8199759e7a349657e4891506102ae905060208a018a61060f565b6102be60408b0160208c0161060f565b60408b013560608c013560808d01356102da60a08f018f6109ce565b6040516102e89291906106d5565b604051908190038120610303979695949392916020016107ba565b6040516020818303038152906040528051906020012061038f565b906103a8565b9050608085013560008061033b602089018961060f565b6001600160a01b03166001600160a01b03168152602001908152602001600020541480156103865750610371602086018661060f565b6001600160a01b0316816001600160a01b0316145b95945050505050565b60006103a261039c6103f3565b836104b5565b92915050565b600081516041146103cb5760405162461bcd60e51b8152600401610103906108d4565b60208201516040830151606084015160001a6103e9868285856104e8565b9695505050505050565b60007f000000000000000000000000000000000000000000000000000000000000000046141561044457507f00000000000000000000000000000000000000000000000000000000000000006104b2565b6104af7f00000000000000000000000000000000000000000000000000000000000000007f00000000000000000000000000000000000000000000000000000000000000007f00000000000000000000000000000000000000000000000000000000000000006105d5565b90505b90565b600082826040516020016104ca92919061073d565b60405160208183030381529060405280519060200120905092915050565b60007f7fffffffffffffffffffffffffffffff5d576e7357a4501ddfe92f46681b20a082111561052a5760405162461bcd60e51b81526004016101039061090b565b8360ff16601b148061053f57508360ff16601c145b61055b5760405162461bcd60e51b815260040161010390610968565b6000600186868686604051600081526020016040526040516105809493929190610822565b6020604051602081039080840390855afa1580156105a2573d6000803e3d6000fd5b5050604051601f1901519150506001600160a01b0381166103865760405162461bcd60e51b815260040161010390610840565b600083838346306040516020016105f09594939291906107f6565b6040516020818303038152906040528051906020012090509392505050565b600060208284031215610620578081fd5b81356001600160a01b0381168114610636578182fd5b9392505050565b600080600060408486031215610651578182fd5b833567ffffffffffffffff80821115610668578384fd5b9085019060c0828803121561067b578384fd5b90935060208501359080821115610690578384fd5b818601915086601f8301126106a3578384fd5b8135818111156106b1578485fd5b8760208285010111156106c2578485fd5b6020830194508093505050509250925092565b6000828483379101908152919050565b6000838583375060609190911b7fffffffffffffffffffffffffffffffffffffffff000000000000000000000000169101908152601401919050565b60008251610733818460208701610a7c565b9190910192915050565b7f190100000000000000000000000000000000000000000000000000000000000081526002810192909252602282015260420190565b901515815260200190565b600083151582526040602083015282518060408401526107a5816060850160208701610a7c565b601f01601f1916919091016060019392505050565b9687526001600160a01b0395861660208801529390941660408601526060850191909152608084015260a083019190915260c082015260e00190565b9485526020850193909352604084019190915260608301526001600160a01b0316608082015260a00190565b93845260ff9290921660208401526040830152606082015260800190565b60208082526018908201527f45434453413a20696e76616c6964207369676e61747572650000000000000000604082015260600190565b60208082526032908201527f4d696e696d616c466f727761726465723a207369676e617475726520646f657360408201527f206e6f74206d6174636820726571756573740000000000000000000000000000606082015260800190565b6020808252601f908201527f45434453413a20696e76616c6964207369676e6174757265206c656e67746800604082015260600190565b60208082526022908201527f45434453413a20696e76616c6964207369676e6174757265202773272076616c60408201527f7565000000000000000000000000000000000000000000000000000000000000606082015260800190565b60208082526022908201527f45434453413a20696e76616c6964207369676e6174757265202776272076616c60408201527f7565000000000000000000000000000000000000000000000000000000000000606082015260800190565b90815260200190565b60008083357fffffffffffffffffffffffffffffffffffffffffffffffffffffffffffffffe1843603018112610a02578283fd5b83018035915067ffffffffffffffff821115610a1c578283fd5b602001915036819003821315610a3157600080fd5b9250929050565b60008219821115610a5757634e487b7160e01b81526011600452602481fd5b500190565b600082610a7757634e487b7160e01b81526012600452602481fd5b500490565b60005b83811015610a97578181015183820152602001610a7f565b83811115610aa6576000848401525b5050505056fea2646970667358221220cd48456331a901f75dda83e5f51b5f374bd16eb7edfa91a61a282d6e00bfef5564736f6c63430008000033",
  "immutableReferences": {
    "10646": [
      {
        "length": 32,
        "start": 1056
      }
    ],
    "10648": [
      {
        "length": 32,
        "start": 1015
      }
    ],
    "10650": [
      {
        "length": 32,
        "start": 1130
      }
    ],
    "10652": [
      {
        "length": 32,
        "start": 1163
      }
    ],
    "10654": [
      {
        "length": 32,
        "start": 1097
      }
    ]
  },
  "source": "// SPDX-License-Identifier: MIT\n\npragma solidity ^0.8.0;\n\nimport \"../utils/cryptography/ECDSA.sol\";\nimport \"../utils/cryptography/draft-EIP712.sol\";\n\n/*\n * @dev Simple minimal forwarder to be used together with an ERC2771 compatible contract. See {ERC2771Context}.\n */\ncontract MinimalForwarder is EIP712 {\n    using ECDSA for bytes32;\n\n    struct ForwardRequest {\n        address from;\n        address to;\n        uint256 value;\n        uint256 gas;\n        uint256 nonce;\n        bytes data;\n    }\n\n    bytes32 private constant TYPEHASH = keccak256(\"ForwardRequest(address from,address to,uint256 value,uint256 gas,uint256 nonce,bytes data)\");\n\n    mapping(address => uint256) private _nonces;\n\n    constructor() EIP712(\"MinimalForwarder\", \"0.0.1\") {}\n\n    function getNonce(address from) public view returns (uint256) {\n        return _nonces[from];\n    }\n\n    function verify(ForwardRequest calldata req, bytes calldata signature) public view returns (bool) {\n        address signer = _hashTypedDataV4(keccak256(abi.encode(\n            TYPEHASH,\n            req.from,\n            req.to,\n            req.value,\n            req.gas,\n            req.nonce,\n            keccak256(req.data)\n        ))).recover(signature);\n        return _nonces[req.from] == req.nonce && signer == req.from;\n    }\n\n    function execute(ForwardRequest calldata req, bytes calldata signature) public payable returns (bool, bytes memory) {\n        require(verify(req, signature), \"MinimalForwarder: signature does not match request\");\n        _nonces[req.from] = req.nonce + 1;\n\n        // solhint-disable-next-line avoid-low-level-calls\n        (bool success, bytes memory returndata) = req.to.call{gas: req.gas, value: req.value}(abi.encodePacked(req.data, req.from));\n        // Validate that the relayer has sent enough gas for the call.\n        // See https://ronan.eth.link/blog/ethereum-gas-dangers/\n        assert(gasleft() > req.gas / 63);\n\n        return (success, returndata);\n    }\n}\n",
  "sourcePath": "/Users/joesmithrovitch/Documents/Cannabits/contracts/metatx/MinimalForwarder.sol",
  "compiler": {
    "name": "solc",
    "version": "0.8.0+commit.c7dfd78e.Emscripten.clang"
  },
  "schemaVersion": "3.4.1",
  "updatedAt": "2021-05-18T16:10:54.898Z",
  "devdoc": {
    "kind": "dev",
    "methods": {},
    "version": 1
  },
  "userdoc": {
    "kind": "user",
    "methods": {},
    "version": 1
  }
}